:020000000C945E
:1000020089000C9400000C9400000C9400000C94E5
:1000120000000C9400000C9400000C9400000C945E
:1000220000000C9400000C9400000C9400000C944E
:1000320000000C9400000C9400000C9400000C943E
:1000420000000C9400000C9400000C9400000C942E
:1000520000000C9400000C9400000C9400000C941E
:10006200C7000C9400000C9400000C9400000C9447
:1000720000000C9400000C9400000C9400000C94FE
:1000820000000C9400000C9400000C9400000C94EE
:1000920000000C9400000C9400000C9400000C94DE
:1000A20000000C9400000C9400000C9400000C94CE
:1000B20000000C9400000C9400000C9400000C94BE
:1000C20000000C9400000C9400000C9400000C94AE
:1000D20000000C9400000C9400000C9400000C949E
:1000E20000001027E80364000A000100001000016C
:1000F2001000010025642025640D0A0001002D4E28
:10010200414E00494E4600000100080AFE00000070
:10011200F894EE27EFBBF1E0F5BFE5BFE093740082
:10012200E0937500F8E1A895A4B7A77FA4BFF09368
:100132006000E09360008DE0A2E0BB27ED938A951A
:10014200E9F780E090E2A0E0B2E0ED930197E9F7F1
:10015200EAE0F1E085919591009761F0A591B59162
:1001620005901590BF01F00105900D920197E1F7FE
:10017200FB01F0CF8BBF8CBFE0E0EEBBEFEFEDBF3A
:10018200E1E2EEBFC0E0DAE00C942401AA93EA9324
:10019200FA93EFB7EA931A930A930EB5E92DF0E0BA
:1001A2003097E9F4013261F4E1E09E2EAA24E0E006
:1001B200E093000AE093010AE093020AE093030A43
:1001C200003461F4E2E09E2E7724E0E0E093040A3A
:1001D200E093050AE093060AE093070A1FC0E130A4
:1001E200A0E0FA0761F40C3719F49924AA2406C096
:1001F200EA2DF0E0E050F64F0083A3940FC0E23006
:10020200A0E0FA0759F40C3719F49924772406C0B0
:10021200E72DF0E0EC5FF54F00837394099119919B
:10022200E991EFBFF991E991A9911895A0E0BAE09F
:100232000E9488033E2E4F2EA4E0BAE00E9488035B
:100242005E2E6F2E089517D0F1DFE6EFF0E0FA93FD
:10025200EA93E32DF42D0E9419040E942604E52D51
:10026200F62D0E9419040E94260488E00E9463036E
:100272002A96EACFFFCFE0E8E0936100E0E0E09366
:100282006100E2B9E1B9E5B9E8E0E4B9E0E0E8B972
:10029200E7B9EBB9EAB9EEB9EDB9E1BBE0BBE4BB52
:1002A200E3BBE0930201E0930101E0930501E093D7
:1002B2000401E0930801E0930701E0930B01E0934E
:1002C2000A01E4BDE5BDE6BDE7BDE8BDE0938000FF
:1002D200E0938100E0938500E0938400E09387003F
:1002E200E0938600E0938900E0938800E0938B001E
:1002F200E0938A00E0938D00E0938C00E093B600D7
:10030200E093B000E093B100E093B200E093B30059
:10031200E093B400E0939000E0939100E0939500A5
:10032200E0939400E0939700E0939600E0939900A5
:10033200E0939800E0939B00E0939A00E0939D0085
:10034200E0939C00E093A000E093A100E093A5005D
:10035200E093A400E093A700E093A600E093A90035
:10036200E093A800E093AB00E093AA00E093AD0015
:10037200E093AC00E0932001E0932101E09325019A
:10038200E0932401E0932701E0932601E093290101
:10039200E0932801E0932B01E0932A01E0932D01E1
:1003A200E0932C01E0936900E0936A00EDBBE093D7
:1003B2006B00E0936C00E0936D00E0936800E093C3
:1003C2006E00E0936F00E0937000E0937100E093A1
:1003D2007200E0937300E093C000E8E1E093C10093
:1003E200E6E0E093C200E0E0E093C500E7E6E093D8
:1003F200C400E0E0E093C900E093D100E093310152
:10040200E0E8E0BFE0E0E0937B00E0937F00E09370
:100412007A00E0ECECBDE0E0EDBDEDB5EEB5E0E07C
:10042200E093BC0078940895AA93E091C000E07232
:10043200E1F3E881E093C60021960895BA93AA9366
:10044200AA81F2DFA881B981ED91FD913196FE93E7
:10045200EE9323960895BA93AA9326970E942B04AB
:1004620010E0AC85BD85E0E0F0E0ED93FC93EA8915
:10047200FB893196EA8BFB8B3197E4912E2FE0308A
:1004820011F40C945B03E12FE03039F4253211F4BE
:1004920011E002C00E94EC030CC1E130A9F4253244
:1004A20019F40E94EC0304C112E040E000E02D3296
:1004B20011F401E0FEC02B3211F44BE2FAC02032FB
:1004C20011F440E2F6C002C0E23039F450E013E029
:1004D200203311F40068EDC004C0E33011F00C9435
:1004E2005A03203310F02A3308F007C0AAE05A9FBB
:1004F200502DE22FE0535E0FDCC0E22FE33649F4C9
:100502000E94F303E889F989A481AA930E94F9035E
:10051200CFC0E33741F40E94F3030E94FF030E941D
:10052200D3031E2F0AC0E03761F40E94F3030E9436
:10053200FF030E94DF031E2F086002600F7730E086
:1005420035C0E43611F0E93611F4046002C0E53733
:1005520031F4E4EEF0E0EE83FF8315E00DC0E83500
:1005620011F4086004C0E83711F00C945903EEEE60
:10057200F0E0EE83FF8314E002FF14C00E94F30355
:100582000E940904AB85AA233AF4EA85FB850E94FE
:100592001504EA87FB874DE2403011F01F5F01C06E
:1005A2000B7F04C00E94F3030E94090400FD11C0E6
:1005B200151778F407FF08C002FF04C00B7F242F31
:1005C200115001C020E301C020E20E94EC0351500F
:1005D200EFCF312F01FF17C03030A1F003FF06C06B
:1005E200EE81FF812591EE83FF8305C0AE81BF813D
:1005F2002D91AE83BF830E94EC03503009F051501D
:100602003150EACF4BC020E3EE81FF810E942204E9
:10061200E887F987EE81FF813296EE83FF83E885D2
:10062200F985AA85BB85AE17BF0750F02F5FA88555
:10063200B985EA85FB85EA1BFB0BEA87FB87EFCFCF
:100642002A3328F003FF02C0295F01C0295D04FD9F
:100652001AC0213320F4A885B985119709F409C07D
:10066200531710F000FF01C013C020E207FF0BC0B8
:1006720020E3006102FF07C00B7F4A930E94F90347
:10068200503009F051500E94EC03503009F05150A3
:100692003150A885B985129708F0B5CF00FF08C080
:1006A200503031F05150E0E2EA930E94F903F8CF62
:1006B20010E0DDCEAC85BD850E941E040E9432048E
:1006C20064960895FF92F82E26971A930A93DE01F4
:1006D20014960E9411048D01E0E0EC83ED83EE8319
:1006E200EF83DE0118960E9411040E941E04FA9301
:1006F200EA931A930A93EFE1F2E0FA93EA93DE01A6
:100702001896A9DE198108812896FF900895BA9358
:10071200AA93B981A881EC918A2FAE2F0E94C803B7
:10072200A82FEE2311F01196F6CFE894EC91ED325A
:1007320011F4689402C0EB3209F411966627772708
:10074200EC918A2FAE2F0E94BF03A82FEE2379F0DF
:10075200FB01660F771F660F771F6E0F7F1F660FF5
:10076200771FED91FF27E0536E0F7F1FE9CFFB014B
:100772001EF4E095F095319622960895AA93E1E051
:10078200F991F03310F0FA3308F0EE270895AA93A6
:10079200E1E0F991F03229F0F93010F0FE3008F082
:1007A200EE270895BA93AA93A991B991EE27FF274C
:1007B2006D91662311F03196FBCF0895BA93AA93F7
:1007C200AA27BB27E991F9910590002011F0119613
:1007D200FBCFFD0108952A93AD85BE85EF85F8898B
:1007E20009950895E889F9893497E88BF98B08957A
:1007F200AD85BE85EF85F88909950895A889B989DF
:1008020014960E941E04EE83FF83AE81BF81089579
:10081200A889B98914960E941E04EA87FB87089565
:100822000024AF0DB01D0895F195E195F0400895B3
:100832006F2F660F660B762F0895ED91FC9111973D
:1008420008950590F491E02D08957A936A93FA93AE
:10085200EA9308955A934A933A932A931A930A93DE
:1008620008955D814C813B812A8119810881089517
:00000001FF
